{
  "_format": "hh-sol-artifact-1",
  "contractName": "RentalHouse",
  "sourceName": "contracts/RentalHouse.sol",
  "abi": [
    {
      "anonymous": false,
      "inputs": [
        {
          "indexed": true,
          "internalType": "uint256",
          "name": "id",
          "type": "uint256"
        },
        {
          "indexed": false,
          "internalType": "address",
          "name": "owner",
          "type": "address"
        },
        {
          "indexed": false,
          "internalType": "uint256",
          "name": "price",
          "type": "uint256"
        }
      ],
      "name": "HouseAdded",
      "type": "event"
    },
    {
      "anonymous": false,
      "inputs": [
        {
          "indexed": true,
          "internalType": "uint256",
          "name": "id",
          "type": "uint256"
        },
        {
          "indexed": false,
          "internalType": "address",
          "name": "tenant",
          "type": "address"
        },
        {
          "indexed": false,
          "internalType": "uint256",
          "name": "rentedUntil",
          "type": "uint256"
        }
      ],
      "name": "HouseRented",
      "type": "event"
    },
    {
      "anonymous": false,
      "inputs": [
        {
          "indexed": true,
          "internalType": "uint256",
          "name": "id",
          "type": "uint256"
        },
        {
          "indexed": false,
          "internalType": "address",
          "name": "tenant",
          "type": "address"
        },
        {
          "indexed": false,
          "internalType": "uint256",
          "name": "amount",
          "type": "uint256"
        }
      ],
      "name": "RentPaid",
      "type": "event"
    },
    {
      "inputs": [
        {
          "internalType": "uint256",
          "name": "_price",
          "type": "uint256"
        }
      ],
      "name": "addHouse",
      "outputs": [],
      "stateMutability": "nonpayable",
      "type": "function"
    },
    {
      "inputs": [
        {
          "internalType": "uint256",
          "name": "_houseId",
          "type": "uint256"
        }
      ],
      "name": "getHouse",
      "outputs": [
        {
          "internalType": "uint256",
          "name": "id",
          "type": "uint256"
        },
        {
          "internalType": "address",
          "name": "owner",
          "type": "address"
        },
        {
          "internalType": "uint256",
          "name": "price",
          "type": "uint256"
        },
        {
          "internalType": "bool",
          "name": "isAvailable",
          "type": "bool"
        },
        {
          "internalType": "address",
          "name": "currentTenant",
          "type": "address"
        },
        {
          "internalType": "uint256",
          "name": "rentedUntil",
          "type": "uint256"
        }
      ],
      "stateMutability": "view",
      "type": "function"
    },
    {
      "inputs": [],
      "name": "houseCount",
      "outputs": [
        {
          "internalType": "uint256",
          "name": "",
          "type": "uint256"
        }
      ],
      "stateMutability": "view",
      "type": "function"
    },
    {
      "inputs": [
        {
          "internalType": "uint256",
          "name": "",
          "type": "uint256"
        }
      ],
      "name": "houses",
      "outputs": [
        {
          "internalType": "uint256",
          "name": "id",
          "type": "uint256"
        },
        {
          "internalType": "address",
          "name": "owner",
          "type": "address"
        },
        {
          "internalType": "uint256",
          "name": "price",
          "type": "uint256"
        },
        {
          "internalType": "bool",
          "name": "isAvailable",
          "type": "bool"
        },
        {
          "internalType": "address",
          "name": "currentTenant",
          "type": "address"
        },
        {
          "internalType": "uint256",
          "name": "rentedUntil",
          "type": "uint256"
        }
      ],
      "stateMutability": "view",
      "type": "function"
    },
    {
      "inputs": [
        {
          "internalType": "uint256",
          "name": "_houseId",
          "type": "uint256"
        }
      ],
      "name": "rentHouse",
      "outputs": [],
      "stateMutability": "payable",
      "type": "function"
    }
  ],
  "bytecode": "0x6080604052348015600f57600080fd5b506109c28061001f6000396000f3fe60806040526004361061004a5760003560e01c80633107c99d1461004f578063aeda852f14610091578063bd74f8b1146100d3578063cc9a4b04146100fe578063f732ece31461011a575b600080fd5b34801561005b57600080fd5b50610076600480360381019061007191906106bb565b610143565b60405161008896959493929190610753565b60405180910390f35b34801561009d57600080fd5b506100b860048036038101906100b391906106bb565b610286565b6040516100ca96959493929190610753565b60405180910390f35b3480156100df57600080fd5b506100e861030f565b6040516100f591906107b4565b60405180910390f35b610118600480360381019061011391906106bb565b610315565b005b34801561012657600080fd5b50610141600480360381019061013c91906106bb565b6104e6565b005b60008060008060008060008060008981526020019081526020016000206040518060c0016040529081600082015481526020016001820160009054906101000a900473ffffffffffffffffffffffffffffffffffffffff1673ffffffffffffffffffffffffffffffffffffffff1673ffffffffffffffffffffffffffffffffffffffff168152602001600282015481526020016003820160009054906101000a900460ff161515151581526020016003820160019054906101000a900473ffffffffffffffffffffffffffffffffffffffff1673ffffffffffffffffffffffffffffffffffffffff1673ffffffffffffffffffffffffffffffffffffffff1681526020016004820154815250509050806000015181602001518260400151836060015184608001518560a001519650965096509650965096505091939550919395565b60006020528060005260406000206000915090508060000154908060010160009054906101000a900473ffffffffffffffffffffffffffffffffffffffff16908060020154908060030160009054906101000a900460ff16908060030160019054906101000a900473ffffffffffffffffffffffffffffffffffffffff16908060040154905086565b60015481565b600080600083815260200190815260200160002090508060030160009054906101000a900460ff1661037c576040517f08c379a00000000000000000000000000000000000000000000000000000000081526004016103739061082c565b60405180910390fd5b806002015434146103c2576040517f08c379a00000000000000000000000000000000000000000000000000000000081526004016103b990610898565b60405180910390fd5b60008160030160006101000a81548160ff021916908315150217905550338160030160016101000a81548173ffffffffffffffffffffffffffffffffffffffff021916908373ffffffffffffffffffffffffffffffffffffffff16021790555062278d004261043191906108e7565b81600401819055508060010160009054906101000a900473ffffffffffffffffffffffffffffffffffffffff1673ffffffffffffffffffffffffffffffffffffffff166108fc349081150290604051600060405180830381858888f193505050501580156104a3573d6000803e3d6000fd5b50817f5b5b2bbc7428a0ff07e287540a851b861a7b3c209f78e3bcdc57e6dd41fef70c3383600401546040516104da92919061091b565b60405180910390a25050565b600160008154809291906104f990610944565b91905055506040518060c0016040528060015481526020013373ffffffffffffffffffffffffffffffffffffffff168152602001828152602001600115158152602001600073ffffffffffffffffffffffffffffffffffffffff168152602001600081525060008060015481526020019081526020016000206000820151816000015560208201518160010160006101000a81548173ffffffffffffffffffffffffffffffffffffffff021916908373ffffffffffffffffffffffffffffffffffffffff1602179055506040820151816002015560608201518160030160006101000a81548160ff02191690831515021790555060808201518160030160016101000a81548173ffffffffffffffffffffffffffffffffffffffff021916908373ffffffffffffffffffffffffffffffffffffffff16021790555060a082015181600401559050506001547f57cf3bf7b5b46d624b65258ab017dbf671253d616ea80d3c22396c47886343b1338360405161067592919061091b565b60405180910390a250565b600080fd5b6000819050919050565b61069881610685565b81146106a357600080fd5b50565b6000813590506106b58161068f565b92915050565b6000602082840312156106d1576106d0610680565b5b60006106df848285016106a6565b91505092915050565b6106f181610685565b82525050565b600073ffffffffffffffffffffffffffffffffffffffff82169050919050565b6000610722826106f7565b9050919050565b61073281610717565b82525050565b60008115159050919050565b61074d81610738565b82525050565b600060c08201905061076860008301896106e8565b6107756020830188610729565b61078260408301876106e8565b61078f6060830186610744565b61079c6080830185610729565b6107a960a08301846106e8565b979650505050505050565b60006020820190506107c960008301846106e8565b92915050565b600082825260208201905092915050565b7f486f757365206973206e6f7420617661696c61626c6500000000000000000000600082015250565b60006108166016836107cf565b9150610821826107e0565b602082019050919050565b6000602082019050818103600083015261084581610809565b9050919050565b7f496e636f7272656374207061796d656e7420616d6f756e740000000000000000600082015250565b60006108826018836107cf565b915061088d8261084c565b602082019050919050565b600060208201905081810360008301526108b181610875565b9050919050565b7f4e487b7100000000000000000000000000000000000000000000000000000000600052601160045260246000fd5b60006108f282610685565b91506108fd83610685565b9250828201905080821115610915576109146108b8565b5b92915050565b60006040820190506109306000830185610729565b61093d60208301846106e8565b9392505050565b600061094f82610685565b91507fffffffffffffffffffffffffffffffffffffffffffffffffffffffffffffffff8203610981576109806108b8565b5b60018201905091905056fea264697066735822122046f3854dba07dde66c691853e7e988357c217f32a8ddffb71d476c3dcf1f176964736f6c634300081b0033",
  "linkReferences": {},
  "deployedLinkReferences": {}
}